:020000040002F8
:10000000C0D10020BD010200C5010200C7010200ED
:10001000C9010200CB010200CD0102000000000076
:10002000000000000000000000000000CF010200FE
:10003000D101020000000000D3010200B938020023
:10004000D7010200D9010200DB010200DD0102003C
:10005000DF010200E1010200E3010200E50102000C
:10006000E7010200E9010200EB010200ED010200DC
:10007000EF010200F1010200F3010200F5010200AC
:10008000F7010200F9010200FB010200FD0102007C
:10009000FF010200654102000302020005020200A6
:1000A00007020200090202000B0202000D02020018
:1000B0000F020200110202001302020015020200E8
:1000C00017020200190202001B0202001D020200B8
:1000D0001F02020021020200911902002502020003
:1000E00027020200290202002B0202002D02020058
:1000F0002F02020031020200330202003502020028
:1001000037020200390202003B0202003D020200F7
:100110003F020200410202004302020045020200C7
:1001200047020200490202004B0202004D02020097
:100130004F02020051020200530202005502020067
:1001400057020200590202005B0202005D02020037
:100150005F02020061020200630202006502020007
:1001600067020200752F02006B0202006D0202009E
:100170006F0202007102020073020200693A02007B
:1001800077020200790202007B0202007D02020077
:100190007F02020081020200830202008502020047
:1001A0008702020089020200DFF80CD001F0ECF9AE
:1001B0000048004765A60300C0D1002033488047AF
:1001C00033480047FEE7FEE7FEE7FEE7FEE7FEE70F
:1001D000FEE7FEE7FEE7FEE7FEE7FEE7FEE7FEE7F7
:1001E000FEE7FEE7FEE7FEE7FEE7FEE7FEE7FEE7E7
:1001F000FEE7FEE7FEE7FEE7FEE7FEE7FEE7FEE7D7
:10020000FEE7FEE7FEE7FEE7FEE7FEE7FEE7FEE7C6
:10021000FEE7FEE7FEE7FEE7FEE7FEE7FEE7FEE7B6
:10022000FEE7FEE7FEE7FEE7FEE7FEE7FEE7FEE7A6
:10023000FEE7FEE7FEE7FEE7FEE7FEE7FEE7FEE796
:10024000FEE7FEE7FEE7FEE7FEE7FEE7FEE7FEE786
:10025000FEE7FEE7FEE7FEE7FEE7FEE7FEE7FEE776
:10026000FEE7FEE7FEE7FEE7FEE7FEE7FEE7FEE766
:10027000FEE7FEE7FEE7FEE7FEE7FEE7FEE7FEE756
:10028000FEE7FEE7FEE7FEE7FEE70000E5180200F6
:10029000A90102002DE9F04FA3B040F28918002611
:1002A000C2F200089F200DF158090DF1700AADF857
:1002B0008860CDE92066CDE91E66CDE91C66CDE9F2
:1002C0001A66CDE9186688F800608DF8580048462F
:1002D0000121524603230FF041FF9DF871109DF854
:1002E000700009029DF8722041EA00404DF6F44783
:1002F0001044C0F2030700BFBD19A968884207D0A7
:100300002836B6F50C7FF7D1002023B0BDE8F08F7A
:10031000687CAC7C8DF858006868D5F80CB0010C8E
:100320008DF85910010A8DF85A108DF85B0009F10B
:1003300004002146012C98BF012100F061FEBE5946
:10034000201DC1B24846524633460FF007FF44F61F
:100350006E71C3F245014AF8061044F258410AEBA7
:100360000600C6F66E31416043F248316F460181A6
:10037000384600F031F806F10A023846514600F0DE
:1003800043F818AE3846314600F088F8287C05213D
:100390008DF858004FEA1B408DF859004FEA1B209A
:1003A0008DF85A0000208DF85BB08DF85C0048464F
:1003B000524610230FF0D2FE30465146102200F074
:1003C0003FFEB0FA80F0400988F8000098F800007D
:1003D00023B0BDE8F08F00BF0021016042F201327E
:1003E00041604AF68931C6F24572CEF6CD7182601F
:1003F0004DF6FE42C16045F27641C9F6BA02C1F23D
:100400003201C0E9042170472DE9F04780460068B9
:100410000D46C0F3C50A00EBC2011446CAF14007FD
:100420008142C8F8001004D2D8F804000130C8F89E
:100430000400D8F80400A74200EB5470C8F8040088
:1004400001D9002720E008F1180909EB0A00294624
:100450003A4600F0AEFD08F108063046494600F085
:10046000CFF9CAF18000A04202D94FF0000A0BE098
:10047000E919304600F0C4F907F18000A04207F105
:100480004007F5D94FF0000A08EB0A001830E919C7
:10049000E21BBDE8F04700F08CBD00BF2DE9F04144
:1004A00082B00546044655F8080B0E46C0F3C50059
:1004B0007821382838BF3821E8460F1A40462146AF
:1004C000082200F053FD40F20C01C2F20001204668
:1004D0003A46FFF799FF204641460822FFF794FF6E
:1004E00030462946102202B0BDE8F04100F03EBD82
:1004F0004CF2BC11C2F20001087070474CF2BC1003
:10050000C2F200000078704770B5144640F28912BC
:10051000C2F200021278E2B10D460646FFF7EEFF86
:1005200010B1052D15D105E0304600F015F806464E
:10053000052D0ED1304600F065F8411C09D000EBC6
:10054000C0004821C000224648241AF067F920461E
:1005500070BD0024204670BD80B582B0A0F59C42DD
:1005600045F2A51300219A42ADF8061002D844F2D4
:1005700049012AE04EF26671411AFE2902D848F676
:10058000090122E04FF62C11411AFD2902D849F643
:10059000D0011AE04FF63061411A4908DA2902D831
:1005A00049F6D64111E0A0F5405140F2D5329142D2
:1005B00002D842F21F6108E042F21001411A40F2F3
:1005C0003262914215D841F66241401A45F67051A7
:1005D000C0F2080101EB40000DF1060202211AF001
:1005E0001DF99DF806009DF8071041EA002002B0B1
:1005F00080BDA43840F2AD31884282BF002002B0F5
:1006000080BDE3E76FF0AF0151FA90F2C0F307212C
:10061000472A0DD8C2B2A12A4FF0FF301DD3FF2ABE
:100620001BD05E2011FB002043F6F351401A7047A7
:10063000A1F1A102082A84BF4FF0FF307047C2B277
:10064000A12A4FF0FF3008D3FF2A08BF70475E2071
:1006500011FB002043F6BF31401A704780B582B0CD
:100660000021ADF806106FF0A00151FA90F1C0F32F
:10067000072C082908D8C1B2A12905D3FF2903D026
:100680005E2043F6BF3228E000F47E41B1F5284FEA
:1006900017D1C3B27F2B4FF0000133D06FF03F0270
:1006A00052FA80F2602A2DD87F2B88BF01380CEBDC
:1006B0004C014CF20E42CFF6FF7202EB4111C0B278
:1006C0000EE0ACF1B00147291FD8C1B2A12925D352
:1006D000FF2923D05E2043F633520CFB00F0891A29
:1006E000084442F29031C0F2090101EB40000DF1E3
:1006F000060202211AF092F89DF806009DF80710F4
:1007000041EA0021084602B080BDACF181011F29F9
:1007100004D8C1B240291CD20021F3E7BCF1AA0FD2
:100720004FF00001EED3BCF1FF0FEBD0C3B27F2B33
:100730004FF00001E6D06FF03F0252FA80F2602ADB
:10074000E0D80CEB4C014FF23E627F2B88BF0138A2
:10075000B1E740F08002D2B2FF2A01D10021D1E7F7
:100760007F2988BF01384BF68061CFF6FF71BE222A
:100770001CFB0211A3E700BF0020052908BF1820B9
:10078000704700BF0020052908BF1820704700BF30
:10079000002070474DF680410022C0F2030100BFE7
:1007A000002A1CBF0020704702EB420311F82320EF
:1007B00082424FF0010204BF01EB83007047EFE774
:1007C00080B5FFF7E7FF002814BF007A002080BD46
:1007D00040B140F28911C2F20001097800291CBF22
:1007E000406970470020704740B140F28911C2F261
:1007F0000001097800291CBF40697047002070473C
:100800002DE9F04FD1B00790D0E90085D0E902671B
:1008100011A800F09FFB06EA050027EA050108433E
:10082000119940440E9108444AF27841CDF26A7120
:10083000084405EB7061129B01EA050026EA0102FB
:100840001043FA1810444BF25672CEF6C702104409
:1008500001EB3052139F109302EA010025EA0203D4
:100860001843F319184447F2DB03C2F2204318443B
:1008700002EBF033149E089703EA020021EA030713
:100880003843AF1938444CF6EE67CCF2BD17384404
:1008900003EBB020159D0C9600EA030722EA000640
:1008A00037432944394440F6AF77CFF27C57394477
:1008B00000EB71610B95169D01EA000723EA010622
:1008C00037432A443A444CF22A67C4F287773A44C1
:1008D00001EB3252DDF85C9002EA010720EA0206E1
:1008E00037434B443B4444F21367CAF630073B445A
:1008F00002EBF336189F099506EA020321EA060582
:100900002B433844184449F20153CFF64653184458
:1009100006EBB020BA46199F00EA060322EA00055A
:100920002B433944194449F6D803C6F680131944B9
:1009300000EB716E0A971A9F0EEA000126EA0E0379
:1009400019433A4411444FF2AF72C8F6443211448D
:100950000EEB31520F971B9F02EA0E0120EA0203B1
:100960001943BB1919444AF24F43C91A02EBF13C2F
:100970001C9C0CEA02012EEA0C0319432044084493
:100980004DF2BE71C8F65C1108440CEBB0231D9DFE
:1009900003EA0C0022EA0301084305EB0E010844B8
:1009A00041F22211C6F69031084403EB7061DDF884
:1009B00078B001EA030E2CEA010040EA0E005A4426
:1009C000104447F29312CFF69852104401EB305086
:1009D00004951F9D00EA010E23EA0002B846039722
:1009E00042EA0E0205EB0C073A4444F28E37CAF293
:1009F00079673A4400EBF23C209E0CEA000221EABF
:100A00000C073A4333441A4440F62103C4F6B413A6
:100A10001A440CEBB222AE4635460596109E02EA09
:100A200000032CEA00073B433144194442F262536D
:100A3000CFF21E63194402EBF16122EA0C0701EACE
:100A40000C033B43484418444BF24033CCF2400380
:100A5000184401EBF05021EA020700EA02033B438D
:100A600004EB0C073B4445F65127C2F25E673B445A
:100A700000EBB34320EA010603EA010737430E9E69
:100A8000DDF824C032443A444CF2AA77CEF6B617C9
:100A90003A4403EB323223EA000602EA0007374306
:100AA0006144394441F25D07CDF22F67394402EBCE
:100AB000F16122EA030601EA030737434044384460
:100AC00041F25347C0F24427384401EBF05021EA89
:100AD000020600EA020737432B443B444EF281678B
:100AE000CDF6A1073B4400EBB343CDF81890DDF8F9
:100AF0002C9003EA010720EA010637434A443A44AE
:100B00004FF6C837CEF2D3773A4403EB32320D9426
:100B10000F9C02EA000723EA0006374321443944C8
:100B20004CF6E657C2F2E117394402EBF16122EAD2
:100B3000030601EA030737437044384440F2D6778E
:100B4000CCF23737384401EBF05021EA020600EAD4
:100B5000020737430C9E0A9C33443B4440F68757B8
:100B6000CFF2D5473B4400EBB34320EA010603EA4A
:100B70000107374322443A4441F2ED47C4F25A5741
:100B80003A4403EB323223EA000602EA0007374315
:100B9000594439444EF60517CAF6E317394402EBB7
:100BA000F161DDF8208001EA030722EA03063743FA
:100BB000404438444AF2F837CFF6EF47384401EB67
:100BC000F05021EA020600EA0207374353443B444F
:100BD00040F2D927C6F26F773B4400EBB34375462A
:100BE000CDF804E0D646CDF800A0DDF810A003EA69
:100BF000010720EA0106374352443A4444F68A4743
:100C0000C8F62A573A4403EB3232614482EA0307BA
:100C100087EA0006314443F64216CFF6FA763144AD
:100C200002EB317120444F4038444FF28167C8F2E3
:100C30007177384401EB70500D9E81EA02074740FE
:100C400033443B4446F22217C6F69D573B4400EB23
:100C5000334380EA01075F402A443A4443F60C07D5
:100C6000CFF6E5573A4403EB7222109E83EA000761
:100C70005740314439444EF64427CAF2BE473944FE
:100C800002EB317182EA03074F40484438444CF686
:100C9000A977C4F6DE37384401EB705081EA0207C9
:100CA000474073443B4444F66037CFF2BB673B4454
:100CB00000EB3343DDF80C9080EA01075F404A44C3
:100CC0003A444BF67047CBF6BF673A4403EB7222C7
:100CD00083EA000757405944394447F6C667C2F6CD
:100CE0009B07394402EB3171DDF838C082EA030713
:100CF0004F406044384442F2FA77CEF6A127384498
:100D000001EB7050DDF830E081EA020747407344A0
:100D10003B4443F28507CDF2EF473B4400EB3343BE
:100D2000069E80EA01075F4032443A4441F6055787
:100D3000C0F288473A4403EB72220F9C83EA000713
:100D40005740214439444DF23907CDF6D417394480
:100D500002EB317182EA03074F405044384449F6B0
:100D6000E517CEF2DB67384401EB7050059C81EA51
:100D70000207474023443B4447F6F847C1F6A277B1
:100D80003B4400EB334380EA01075F4042443A446E
:100D900045F26567CCF2AC473A4403EB72226144FA
:100DA00062EA00075F40394442F24427CFF2294704
:100DB000394402EBB161009FCDF808B0384461EAD4
:100DC0000307574038444FF69777C4F22A37384420
:100DD00001EBB050019F079D3B4460EA02074F4082
:100DE0003B4442F2A737CAF694373B4400EB7343C7
:100DF000099F3A4463EA010747403A444AF23907F7
:100E0000CFF693473A4403EBF222514462EA0007DB
:100E10005F40394445F6C317C6F25B57394402EBCD
:100E2000B161704461EA0307574038444CF6924779
:100E3000C8F60C77384401EBB0504B4460EA020727
:100E40004F403B444FF27D47CFF6EF773B4400EBFA
:100E50007343109F3A4463EA010747403A4445F61A
:100E6000D157C8F284573A4403EBF2220A9F39441F
:100E700062EA00075F40394447F64F67C6F6A87735
:100E8000394402EBB161204461EA0307574038441A
:100E90004EF2E067CFF62C67384401EBB050334494
:100EA00060EA02074F403B4444F21437CAF201376C
:100EB0003B4400EB7343029F0F9E3A4463EA0107F1
:100EC00047403A4441F2A117C4F608673A4403EB9D
:100ED000F2220B9F394462EA00075F40394447F62B
:100EE0008267CFF25377394402EBB1610D9F3844EA
:100EF00061EA0307574038444FF23527CBF63A579B
:100F0000384401EBB050434460EA02074F403B4491
:100F10004DF2BB27C2F6D7273B4400EB7343324464
:100F200063EA010747403A444DF29137CEF68637DF
:100F30002E683A446F6831442960D91901EBF221D7
:100F4000AA6869609918EA68A9601044E86051B01D
:100F5000BDE8F08FCA1E0438102100BFD2F803305C
:100F6000043240F8043F0139F8D17047B0B5002A87
:100F700008BFB0BD00F1010C002300BF51F803E031
:100F80000CEB030000F801EC51F803E0CD184FEA38
:100F90001E240CF803406C8804334470ED789342AF
:100FA0008570EBD3B0BDA0F14101192900D82030E4
:100FB000704710B5431A934209D28318881803E08A
:100FC00010F8011D03F8011D521EF9D210BD40EAB0
:100FD00001039B0703D009E008C9121F08C0042AB7
:100FE000FAD203E011F8013B00F8013B521EF9D29E
:100FF00010BDD2B201E000F8012B491EFBD27047B0
:101000000022F6E710B513460A4604461946FFF7D4
:10101000F0FF204610BD421C10F8011B0029FBD137
:10102000801A704710B5002200E0521C835C8C5C73
:10103000A34201D1002BF8D1D8B2E1B2401A10BDC1
:1010400030B504460020034600E05B1C934203D207
:10105000E05CCD5C401BF8D030BD034611F8012B9D
:1010600000F8012B002AF9D1184670472DE9FE4FF0
:10107000804681EA0300C00F0C46009021F0004139
:1010800023F00045B8EB0200A94105D240462146B5
:1010900090461C460B46024623F00040104347D0C2
:1010A000270DC7F30A00C3F30A510290401A0190BA
:1010B00040286BDAC3F3130040F4801B009892467B
:1010C00020B10023D2EB030A63EB0B0B01985946C6
:1010D000C0F14002504600F098F906460D465046D1
:1010E0005946019A00F0B0F910EB08006141002464
:1010F00087EA115284EAE7731A4340D0009A62B338
:10110000019A012A4FEA075215DC001B61EB02012C
:101110004FF0004202EA0752CDE90042001C41F5BF
:10112000801132462B4600F0B0F903B0BDE8F08FD5
:1011300040462146F9E7001B61EB0201001C41F526
:10114000801300185B412018A2F5001747EB03013C
:1011500040EAD570B6196D4111E06D084FEA3606C8
:1011600045EAC0754FEA0752001B61EB0201001C03
:1011700041F5801149084FEA3000001951413246CB
:101180002B4603B0BDE8F04F00F070B90098012283
:1011900040000023D0EB020263EBE073009821468D
:1011A0004FEAE074B8EB000061EB0401E9E783F07B
:1011B00000435BE781F0004158E72DE9FE4F81EAEB
:1011C000030404F0004421F0004100944FF0000BB0
:1011D00023F0004350EA01045ED052EA03045BD0DE
:1011E000C3F30A54C1F30A552C44A4F2F334019416
:1011F000A0FB0254C1F3130141F48011C3F31303A4
:1012000043F4801301FB024400FB034E840A970A57
:1012100044EA815447EA8357A4FB076802958D0A84
:1012200005FB07854FEA932C04FB0C542705029D10
:101230004FEA065847EA1637B5EB08056EEB070C80
:10124000870E920E47EA811742EA8312A7FB02013A
:10125000B6EB0B0164EB00042B0D43EA0C335E1874
:1012600044EB1C50DA465146E7FB0201C5F3130478
:101270004FEA0B3343EA14534FEA0432019C43EA2A
:101280000603A4F10C040294009CCDE900B400F024
:10129000FCF803B0BDE8F08F00200146F9E72DE926
:1012A000F04D81EA030404F0004B21F000451446A0
:1012B0004FF0000A23F0004150EA050220D054EA22
:1012C00001021DD0C5F30A570246C5F31303C1F34B
:1012D0001300C1F30A5640F4801543F48013A7EBC2
:1012E0000608101BD64608F2FD3873EB050002D342
:1012F00008F1010801E092185B41B8F1000F03DA30
:1013000000200146BDE8F08D00204FF48011064614
:1013100084460EE0171B73EB050705D3121B63EB26
:10132000050306434CEA010C49084FEA30009218C5
:101330005B4150EA0107EDD152EA030012D082EA84
:10134000040083EA0501084305D0101BAB4106D217
:101350000122002306E000224FF0004302E06FF07C
:10136000010253101AEB06004CEB085110EB0A0077
:1013700041EB0B01BDE8F04D00F078B830B50B46FD
:10138000014600202022012409E021FA02F59D42B5
:1013900005D303FA02F5491B04FA02F52844151E89
:1013A000A2F10102F1DC30BD2DE9F05F054600201D
:1013B00092469B4688460646814640241BE02846C6
:1013C00041464746224600F02FF853465A46C01A77
:1013D000914110D311461846224600F016F82D1AF6
:1013E00067EB01084F4622460120002100F00DF86E
:1013F00017EB00094E41201EA4F10104DFDC484632
:1014000031462A464346BDE8F09F202A04DB203AB5
:1014100000FA02F1002070479140C2F1200320FA47
:1014200003F3194390407047202A04DB203A21FA45
:1014300002F00021704721FA02F3D040C2F12002ED
:101440009140084319467047202A06DBCB17203A03
:1014500041FA02F043EAE07306E041FA02F3D040B9
:10146000C2F12002914008431946704710B5141E7E
:1014700073F1000408DA401C41F1000192185B414D
:101480001A4301D120F0010010BD2DE9F04D924624
:101490009B4611B1B1FA81F202E0B0FA80F220323B
:1014A0009046FFF7B2FF04460F4640EA0A0041EAC1
:1014B0000B0153465A46084313D0114653EA010024
:1014C00019D0C8F140025046FFF7AEFF05460E4660
:1014D000504659464246FFF798FF084305D0012081
:1014E00004E020463946BDE8F08D0020054346EA79
:1014F000E0762C4337430A986305E40AA0EB080022
:101500000022FD0A44EA47540A3002D50020014671
:10151000E9E7010510196941DDE90845001969414C
:10152000BDE8F04DA2E7C1F30A52C1F3130140F246
:10153000FF3341F480119A4202DA002001467047DD
:1015400040F233439A42A2F2334202DC5242FFF7A6
:101550006BBFFFF75ABF000030B5041E71F10004E5
:1015600004DB4FF00044404264EB0101141E73F1B0
:10157000000405DB1C464FF00043524263EB0403BA
:10158000994208BF904230BD064C074D06E0E06826
:1015900040F0010394E8070098471034AC42F6D3BA
:1015A000FEF706FE680B0400880B0400F0B5DDE9C9
:1015B00006CE0CF10704E4080EF107050460EC0800
:1015C0000C6006684FEA5E07002E18BFEE08002E7A
:1015D0000E6004BF002505600CF10305EE084660AF
:1015E0004C604668002E08BF3446002C4C6004BF97
:1015F00000244460AC0884600EF10304E5088D60AB
:101600008568002D18BFE508002D8D6004BF0025FA
:1016100085600CF10105AE08C660A608CE60C668FC
:10162000002E18BFA608002ECE6004BF0024C460A0
:101630006C0804610EF10104A5080D610569002D17
:1016400018BFA508002D0D6104BF002505614FEAF4
:101650005C05456165084D614569002D18BF650849
:10166000002D4D6104BF00244461C0F818C08F6193
:101670008469DDF814C0002C18BF4FEA5E04002C0A
:101680008C6104BF002787610024CCF800401C60F7
:1016900014600568DDF820E05DB10C6844B105FB1D
:1016A0000EF50126073506EBD50504FB05F400E031
:1016B0000024546004681D6804FB0EF40E680734AF
:1016C000E40804FB06545C600C68056804FB0EF437
:1016D00004FB05F4DCF80050073405EBD404CCF827
:1016E0000440456854685DB14E684EB105FB0EF587
:1016F0000127073507EBD50506FB05F501E000BF1F
:1017000000252C44946044685D6804FB0EF44E6828
:101710000734E40804FB06549C604C68456804FBED
:101720000EF404FB05F4DCF80450073405EBD40494
:10173000CCF808408568946855B18E6846B105FBC1
:101740000EF50127073507EBD50506FB05F500E08B
:1017500000252C44D46084689D6804FB0EF48E68D8
:101760000734E40804FB0654DC608C68856804FBDD
:101770000EF404FB05F4DCF80850073405EBD40440
:10178000CCF80C40C568D46855B1CE6846B105FBAD
:101790000EF50127073507EBD50506FB05F500E03B
:1017A00000252C441461C468DD6804FB0EF4CE6887
:1017B0000734E40804FB06541C61CC68C56804FBCC
:1017C0000EF404FB05F4DCF80C50073405EBD404EC
:1017D000CCF810400569146955B10E6946B105FB96
:1017E0000EF50127073507EBD50506FB05F500E0EB
:1017F00000252C44546104691D6904FB0EF40E6934
:101800000734E40804FB06545C610C69056904FBB9
:101810000EF404FB05F4DCF81050073405EBD40497
:10182000CCF814404569546955B14E6946B105FB81
:101830000EF50127073507EBD50506FB05F500E09A
:1018400000252C44946144695D6904FB0EF44E69E3
:101850000734E40804FB06549C614C69456904FBA9
:101860000EF404FB05F4DCF81450073405EBD40443
:10187000CCF818408569946955B18E6956B105FB5D
:101880000EF50127073507EBD50506FB05F502E048
:10189000002500E000252C44D46182699C6902FB8C
:1018A0000EF28D690732D20802FB0542DA618969BE
:1018B000806901FB0EF101FB00F0DCF81810073025
:1018C00001EBD000CCF81C00F0BD0000012202FAB0
:1018D00001F1016270470000C069C84000F00100DA
:1018E000704700007047000080B54FF6AC72EFF310
:1018F000108172B64F28C0F611320FDC1E282FD08F
:1019000028281DD140F2314348F6492041F2A9412F
:10191000C1F20013984762B680BD00BF50282BD09B
:1019200078280DD141F6894040F23143C0F20100E0
:1019300043F66B51C1F20013984762B680BD00BFF9
:1019400041F68940C0F2010040F2314300F5924077
:1019500044F67441C1F20013984762B680BD00BFDF
:1019600040F2314348F6491040F6A171C1F200132C
:10197000984762B680BD00BF40F231434DF2493016
:1019800042F64A11C1F20013984762B680BD0000CA
:1019900010B541F60004C4F2040420460021FFF70C
:1019A0009BFF002808BF10BD20460021FFF78EFFD7
:1019B00040F28810C2F200000121017010BD000049
:1019C0000122036802FA01F123EA01010160704774
:1019D000006BC84000F00100704700002DE9F043A3
:1019E00081B0074640F2FF70C4F20400002498461C
:1019F000914687420D46C4F20A041BDD41F2FF7096
:101A0000C4F2040087422BDC40F60000C4F204005C
:101A100087423BD041F20000C4F2040087425BD110
:101A20000820C4F200000168203441F00401016084
:101A300052E000BFB7F1402F32D044F60000C4F2AC
:101A40000000874240D00020C4F20400874243D106
:101A50000820C4F20000016841F0010101603BE090
:101A600041F60000C4F20400874223D041F2000096
:101A7000C4F20A0087422FD10820C4F20000416856
:101A8000403441F00101416026E000BF0820C4F26B
:101A900000000168103441F0020101601CE000BF49
:101AA0000820C4F200000168803441F01001016098
:101AB00012E000BF0820C4F200000168303441F099
:101AC0000801016008E000BF0820C4F200000168BE
:101AD000903441F020010160204629460022012374
:101AE000012601F069FC06FA05F07968B9F1010FE9
:101AF00014BF21EA00000843786001210898A9403A
:101B0000D4F80021B8F1010F14BF22EA01011143FA
:101B10000122C4F80011012802FA05F0D4F80022CD
:101B200014BF22EA000010430999C4F80002012002
:101B3000A8400129D4F800140CBF084321EA000092
:101B4000C4F8000401B0BDE8F0830000012203687E
:101B500002FA01F119430160704700002DE9F047D6
:101B600088B00025C4F2040505F5C02630460121E1
:101B70000122012348F240084FF0010A01F01CFC49
:101B800040F20014C4F20A042068002140F0020070
:101B90002060D4F80003012240F00200C4F80003E2
:101BA00030460123002701F007FC206804F5BE46FB
:101BB00040F001002060D4F8000302A940F00100C9
:101BC000C4F8000348F2A060C0F201000390304660
:101BD0008DF808A08DF81070ADF8167001F07AF845
:101BE000304601F045F905F5C05630460021002287
:101BF0000023CDF800A00197FFF7F0FE284605214D
:101C00000122012300970197FFF7E8FE28460521EE
:101C1000FFF7D6FE0A2019F0CFFC28460521FFF772
:101C200095FF0A2019F0C8FC07AF4FF0020948F2EF
:101C30004000394601228DF81C9000F00BFA642018
:101C400019F0BAFC642019F0B7FC28460521FFF70B
:101C5000B7FE30460021FFF7B3FE1E2019F0ACFCA2
:101C600028460521FFF772FF30460021FFF7A8FE46
:101C70001E2019F0A1FC30460021FFF7A1FE1E2016
:101C800019F09AFC30460021FFF760FF48F240103F
:101C90003946042200F03EF8079843F23911C0F2A9
:101CA0003101884204D0504608B0BDE8F08700BF3B
:101CB00007AC48F24000214601228DF81C9000F04C
:101CC000C9F908F1070080B22146012200F022F88C
:101CD0009DF81C1067299CBF09A01AF06BFC0A2014
:101CE00019F06AFC4FF0000A07A948F240000122EF
:101CF0008DF81CA000F0AEF9504608B0BDE8F087A2
:101D000044656661756C74205665723A25780D0AD3
:101D1000000000002DE9F04381B046F20009C4F252
:101D20000A0990460D4606464846BA210122012777
:101D300001F0C6F890B3310A48460122012701F0AC
:101D4000F9F858B3F1B248460122012701F0F2F840
:101D500020B3052019F030FC4846BB2101220127A1
:101D600001F0AEF8D0B1B8F1020F0FD3A8F101071E
:101D70000026002448460121012201F07FF80134A9
:101D8000A855E6B2B742F5DC01E000BF00264846A0
:101D900000210122002701F071F8A85548460121D1
:101DA00001F0AEF8384601B0BDE8F0832DE9F0430C
:101DB00083B000208DF805000DF1050148F24E10AA
:101DC000012248F24E160127FFF7A4FF70B1A6F5D5
:101DD000877080B20DF10B0101228DF80B7000F0BD
:101DE00039F9002003B0BDE8F08300BF40F290193C
:101DF000C2F2000999F914009DF80550B0F1FF3FB7
:101E000040F3E88068B205F00F04B0F1FF3F0DDC4D
:101E1000052C0BD800208DF806000DF1060148F2C4
:101E20004E10012200F016F90028D0D1002C00F04D
:101E3000DB80FF20A040C1218DF8060061EA000090
:101E400099F8148089F81400B9F80000B9F80A105C
:101E5000A9F80800B01C80B2A9F812100DF1070112
:101E60000422FFF757FF0028B1D19DF808109DF814
:101E7000070001F00F0140EA01209DF80A109DF8CB
:101E80000920A9F8000001F00F0199F8140042EAB6
:101E900001218207A9F80A101FD506F10A0080B2B5
:101EA0000DF107010422FFF735FF00288FD19DF8BF
:101EB00008109DF8070001F00F0140EA01209DF88D
:101EC0000A109DF80920A9F8020001F00F0042EA6B
:101ED000002199F81400A9F80C10410720D506F14B
:101EE000120080B20DF107010422FFF713FF002852
:101EF0007FF46DAF9DF808109DF8070001F00F0109
:101F000040EA01209DF80A109DF80920A9F8040074
:101F100001F00F0042EA002199F81400A9F80E1010
:101F2000010720D506F11A0080B20DF10701042245
:101F3000FFF7F0FE00287FF44AAF9DF808109DF8E7
:101F4000070001F00F0140EA01209DF80A109DF8FA
:101F50000920A9F8060001F00F0042EA002199F8D3
:101F60001400A9F81010C0061ED506F1220080B298
:101F70000DF107010422FFF7CDFE00287FF427AF03
:101F80009DF808109DF807009DF80A309DF809207B
:101F900001F00F0140EA012003F00F0142EA0121A4
:101FA000A9F80800A9F81210B9F80000400918288B
:101FB00004D8B9F80A00B0F5F07F09D3022C31D368
:101FC000B9F80200B9F80C10A9F80000A9F80A1035
:101FD00001200AE015B3FF2D7FF414AF002089F82B
:101FE000140003B0BDE8F083002005F08F018029C4
:101FF0007FF4F8AE99F814804FFA88F1B1F1FF3F01
:1020000021DD4FF0FF31A9F80010A9F80A1008F0FF
:10201000E00189F8141003B0BDE8F083012003B09B
:10202000BDE8F083B9F80800B9F81210A9F800006B
:102030008020A9F80A108DF8050001204FFA88F1D8
:10204000B1F1FF3FDDDC08F07F0189F8141003B027
:10205000BDE8F0832DE9F04146F20008C4F20A0819
:1020600015460E4604464046BA210122012700F0DB
:1020700027FFE0B1210A40460122012700F05AFF64
:10208000A8B1E1B240460122012700F053FF70B130
:1020900065B1012731784046012200F04BFF30B195
:1020A000013D06F10106F5D1002700E0002740467A
:1020B000012100F025FF3846BDE8F08170B541F6FA
:1020C0000004C4F2040420460521FFF73FFD20462A
:1020D0000521FFF775FC20460721FFF779FC05462F
:1020E000002818BF012520460521FFF72FFD2046B7
:1020F0000521FFF765FC20460721FFF769FC002852
:1021000018BF012040EA450620460521FFF71EFDC5
:1021100020460521FFF754FC20460721FFF758FC15
:102120000546002818BF012520460521FFF70EFDB2
:1021300020460521FFF744FCB00040EA4505204653
:102140000721FFF745FC002818BF01202E18204664
:102150000521FFF7FBFC20460521FFF731FC204657
:102160000721FFF735FC0546002818BF012520464A
:102170000521FFF7EBFC20460521FFF721FCB0000D
:1021800040EA450520460721FFF722FC002818BF3A
:1021900001202E1820460521FFF7D8FC20460521F6
:1021A000FFF70EFC20460721FFF712FC054600282A
:1021B00018BF012520460521FFF7C8FC2046052150
:1021C000FFF7FEFBB00040EA450520460721FFF778
:1021D000FFFB002818BF0120054420460521FFF71A
:1021E000B5FCE8B270BD00002DE9F04F95B00E4689
:1021F0004FEA82094FF25E5192468346C0F20301D4
:10220000484653229846532505F0F2FE0028CBF8A5
:10221000040000F04F85BAF1000F39D0AAF1010196
:1022200003290AF0030C01D200221AE02AF0030E5F
:1022300006F1080500F10804002100227758631810
:1022400047506F1857F8047C043243F8047C6B58ED
:1022500077186350FB684718964501F11001FB6041
:10226000ECD1BCF1000F13D056F82210BCF1010FD5
:1022700040F822100CD0511C56F82130BCF1020F4E
:1022800040F8213004D0911C56F8212040F821203C
:102290004FF25E55C0F20305484629465322CBE96A
:1022A000028A05F0A5FEDBF80810042404EB810186
:1022B000CBF8000008462946532205F099FEDBF8CA
:1022C0000810064604EB810153220846294605F012
:1022D0008FFE8046002818BF002E17D13EB14FF266
:1022E0005E51C0F203013046652205F077FEB8F179
:1022F000000F45D04FF25E51C0F203014046652207
:1023000005F06CFE532500F0D5BC00BFDBF800C023
:10231000BCF1000FE2D0DBF80800013036D000211C
:102320000C23002008EB030242F80C1CF21842F8C0
:102330000C1CDBF8082090422AD008EB800706EB43
:10234000800479606160DBF80850421CAA4265D0C5
:10235000B960A160DBF80870821CBA425ED048F810
:102360000310F150DBF80820071D033010339042B2
:102370003846D7D1781EDBF80C1069B953E000BF9E
:102380005325284615B0BDE8F08F00BF4FF0FF3051
:10239000DBF80C10002946D0DBF80400032100F123
:1023A000080200BF52F8080C56F82030013346F8F6
:1023B0002030DBF80C30881E984229D052F8040CEB
:1023C00056F82030013346F82030DBF80C30481E38
:1023D00098421DD0106856F82030013346F820305E
:1023E000DBF80C00814214D05068103256F82030CF
:1023F000013346F82030DBF80C000B1D013181421F
:102400001946CFD1D91EDBF8080070B93BE000BFF8
:102410000146DBF8080040B935E000BF1046DBF8A4
:102420000C100029B8D1002168B3D8F8007001223F
:10243000002100BF705808EB0103384444005C6081
:10244000DBF8080082421CD27718786802322044F8
:1024500044009C60DBF80800824212D8B868013260
:1024600020444400DC60DBF80800824209D8F868A8
:102470000132204447001F61DBF80800103182421E
:10248000D8D9DBF80C10E9B1DBF8042000234FF0B9
:10249000FF3702E001338B4214D052F82340002C66
:1024A000F8D058F82400411C48F824104CF82300B8
:1024B00052F8231007FA01F188434CF82300DBF8A7
:1024C0000C10E7E74FF25E57C0F20307304639467B
:1024D000652205F083FD40463946652205F07EFD04
:1024E0004FF4006039465322532505F081FD002842
:1024F00000F0E0834FF400610C90FEF781FDDBF803
:102500000C200AB3DBF804000C9E002103E000BF9E
:102510000131914218D250F821300A2BF8D3DBF860
:102520000020A3F1090752F82120FA4092FAA2F202
:10253000D20D56F822709F4288BF3B4646F82230A3
:10254000DBF80C20E4E700BF4FF400701390002587
:102550006FF01F00CDF82CB0149000BF0C98002134
:1025600047594319093F0D954FF0010B88BF0BFAEE
:1025700007F1D3E9017611910021D3E9038C093FDA
:1025800088BF0BFA07F11091B6F109074FF000016F
:1025900088BF0BFA07F1B8F109074FF00008129154
:1025A00088BF0BFA07F85E69BCF109074FF000021B
:1025B00088BF0BFA07F2B6F109079E694FF00004D5
:1025C00088BF0BFA07F4B6F109074FF0000688BF81
:1025D0000BFA07F614994FF0000E4718D7E90FC70A
:1025E0000020BCF1090C88BF0BFA0CFE4FF0000A6A
:1025F000B7F1090C5F6A88BF0BFA0CF00021B7F144
:10260000090C9F6A88BF0BFA0CFAD3F82CC0B7F1FB
:10261000090588BF0BFA05F1BCF10905D3F830C0F4
:102620000F914FF0000188BF0BFA05F1BCF10905CD
:10263000D3F834C00E914FF0000188BF0BFA05F1BA
:10264000BCF109054FF0000C9F6B88BF0BFA05FC2D
:10265000DB6BB7F109054FF0000B4FF0010988BFA4
:1026600009FA05FB093B4FF0000588BF09FA03F59D
:10267000DDF84C90119B109F4B443B44129F3B4410
:102680004344134423443344734403440F9F53444B
:102690003B440E9F3B440B4463445B442B441393E5
:1026A0002B460D9D149F4035B5F5006F07F140078F
:1026B00014977FF453AF03AD85E8081806AB4FF2CB
:1026C0005E5583E80304C0F203051398CDE909625F
:1026D00029465322CDF83490F2460294044605F080
:1026E00087FC0B9E2946374647F8100F600053229F
:1026F00005F07EFC344644F8140FA8B13B68BE4692
:1027000093B113990C980029564645D0139A10217D
:10271000012A197040D0139A511E023A032A01F07F
:1027200003050FD2012125E04FF25E510C98C0F253
:102730000301652205F052FC5325284615B0BDE87B
:10274000F08F00BF21F0030200211023DEF800709B
:102750000F447B70DEF800700F44BB70DEF8007031
:102760000F44FB70DEF800700F4404318A423B7165
:10277000ECD1013185B1DEF800301022012D5A5420
:102780000AD0DEF80030022D0B445A7004D0DEF877
:1027900000200A44102191704FF4007A00211C227D
:1027A0000125149415E000BFDEF800700F44FB71A2
:1027B0002768093B07EB410705FA03F3A7F80EA0CA
:1027C0009A440D9F0831B1F5007F02F1200200F01C
:1027D0009980831853F81C3C0A2B19D200EB810313
:1027E0005F680A2F23D29F680A2F33D2DF680A2F2F
:1027F00041D21F690A2F4FD25F690A2F5DD29B69B0
:102800000A2B6BD2149C83580A2BDAD3CCE700BF77
:10281000DEF800707B542768093B05FA03F327F8BC
:1028200011A09A4400EB81035F680A2FDBD3A44612
:10283000DEF800400C980C446770DCF80040093F5B
:1028400004EB410405FA07F7A4F802A0BA449F6814
:102850000A2FCBD3DEF800400C44A770149C093F2C
:10286000246805FA07F704EB4104A4F804A0BA446D
:10287000DF680A2FBDD3DEF800400C44E770149CDB
:10288000093F246805FA07F704EB4104A4F806A001
:10289000BA441F690A2FAFD3DEF800400C442771F9
:1028A000149C093F246805FA07F704EB4104A4F8D7
:1028B00008A0BA445F690A2FA1D3DEF800400C4497
:1028C0006771149C093F246805FA07F704EB41047B
:1028D000A4F80AA0BA449B690A2B93D3DEF80070CF
:1028E000149C0F44BB712768093B07EB410705FAAD
:1028F00003F3A7F80CA09A4483580A2BFFF461AFA6
:1029000052E700BF4FF25E51C0F203016522CDF8DD
:1029100030E005F063FB0B98C068002800F00581EB
:10292000DDE90B1ECDF80480B04600254FF0000A0B
:1029300008E000BF0C460D9F0B990135C868854221
:1029400080F0EC80486850F825B0BBF1000FF3D060
:10295000086850F82510ABF10100032806D20023C7
:1029600000201BF0030235D158E000BF2BF0030C10
:102970005E46ABF104020023002000BFD71C21FA01
:1029800007F707F0010787403B43971C21FA07F739
:1029900007F0010700F1010E07FA0EF73B43571C41
:1029A00021FA07F707F00107841CA7403B4321FAEF
:1029B00002F707F00107C41CA74004303B438445DD
:1029C000A2F10402DAD1DDF830E0149CB3461BF02A
:1029D000030223D0C7435F4421FA07F707F001073A
:1029E0008740012A43EA070318D0ABEB000CACF197
:1029F000020421FA04F4471C04F0010404FA07F766
:102A0000149C022A43EA070308D0ACF10302D14028
:102A1000023001F0010101FA00F00343BBF1090F9C
:102A20000AF1010A18D8CBF1090001214A1E02FA65
:102A30000BF2DEF800701A43BC5C102C40F03E81B3
:102A4000149C07F802B0276827F8125031FA00F2F8
:102A500001F10101EAD06EE71846DEF800206FF3BD
:102A60005F20115C5945C0F029812768B1EB0B0943
:102A700037F8106006EB532702F807B0226822F8F7
:102A8000175047D0DDF830E0ABF1090C5B0A0122AA
:102A9000214600BF02FA0CF4DEF800701C433444F7
:102AA00007F804B00F68013232FA09F027F8145021
:102AB0007FF440AF02FA0CF4DEF800001C4334440B
:102AC00000F804B00868013232FA09F720F814500F
:102AD0007FF430AF02FA0CF4DEF800001C433444FB
:102AE00000F804B00868013232FA09F720F81450EF
:102AF0007FF420AF02FA0CF4DEF800001C433444EB
:102B000000F804B00868013232FA09F720F81450CE
:102B1000C0D00FE7DDF830E00DE700BFDDF804902E
:102B20001299BAF1020F80F08980139B002B00F0FC
:102B3000CB80591E0C9D4FF6FF70032903F0030252
:102B400038D20021002A00F0BF802B685F5C102F74
:102B500008D10A27B1F5007F38BF01275F542368E9
:102B600023F81100012A00F0AF802F684B1CFE5C97
:102B7000102E08D10A26B1F5FF7F98BF0126FE541A
:102B8000276827F81300022A00F09E802B688A1C11
:102B90009F5C102F40F098800A27B1F5FF7F38BF67
:102BA00001279F542168002521F81200284615B0FE
:102BB000BDE8F08F23F00303002102E004318B42D3
:102BC000C0D02F687E5C102E08D10A26B1F5007F98
:102BD00038BF01267E54276827F811002F680F445C
:102BE0007E78102E09D10A26B1F5FF7F98BF012605
:102BF0007E70276807EB410778802F680F44BE7806
:102C0000102E09D10A26B1F5FF7F38BF0126BE700C
:102C1000276807EB4107B8802F680F44FE78102E15
:102C2000CCD1CE1CB6F5007F4FF00A0638BF012686
:102C3000FE70276807EB4107F880BFE7139800286C
:102C400042D01098002208440A9948440844029946
:102C50000025084409990844069940440844089905
:102C600008440F9908440E990844079908440599A7
:102C700008440499084403990844119901440C98A4
:102C8000394400684942835C102B17D08B185F1CB5
:102C90001AD087187E78102E10D09E1C14D0BE78C3
:102CA000102E0BD003330FD0FB78102B06D004323C
:102CB0008B18E8D1284615B0BDE8F08F3725284697
:102CC00015B0BDE8F08F00BF0025284615B0BDE85F
:102CD000F08F00002DE9F04146F2000CC4F20A0C1E
:102CE00046F6000E6045C4F20A0E05D070450BD1C1
:102CF0004FF4803202E000BF4FF400420823C4F2D8
:102D000000031C6822431A60026822F0010202607C
:102D10000B780268012B3BD142F00202026040F2C4
:102D20000402C2F20002126849F68173C1F25E63C6
:102D30004C6844F24026A2FB0323C0F20F06DA0CD3
:102D40004FF0FF33B6FBF4F46FF0FF0603EB4205E0
:102D500006EB02220026CFF6FF7606EB04442A4358
:102D60002243426243618A7BC97B704542EA410348
:102D7000836159D060456FD151EA020046D04EF2CE
:102D80000010CEF200004FF400410160BDE8F08178
:102D900022F002020260026B22F001020263056B64
:102DA0000E7A91F80E803543CC7B0B7C05631022A4
:102DB000B6FA86F54F89002E08BF11228E896D095B
:102DC00007FA05F506FA02F22A4342634FF0FF3292
:102DD00048EA4405426145EA0322497C704542EADB
:102DE000412282612CD0604518BFBDE8F08144EAE1
:102DF00008001843084309D04EF20010CEF200003C
:102E00004FF400410160BDE8F08100BF4EF20010B8
:102E1000CEF200004FF40041C0F88010BFF34F8F96
:102E2000BFF36F8FBDE8F08151EA02004EF200104F
:102E3000CEF2000012D04FF080410160BDE8F08179
:102E400044EA0800184308434EF20010CEF2000096
:102E500004D04FF080410160BDE8F0814FF0804127
:102E6000C0F88010BFF34F8FBFF36F8FBDE8F081C4
:102E7000016841F00101016070470000B1FA81F181
:102E8000490981600221002A016202BF0020C0B20C
:102E90007047002141F28532036A9B070DD500BFC0
:102EA000036A9B0742BF00BF036A5FEA837304D5CE
:102EB000914201F1030100BFEED9C068C0B2704772
:102EC00001610521002A016204BF00207047002132
:102ED00041F28532036A5B070DD500BF036A5B07C9
:102EE00042BF00BF036A5FEA437304D5914201F118
:102EF000030100BFEED98068012121EA500070472C
:102F000008220029026208BF7047002141F2853281
:102F1000036A1B070DD500BF036A1B0742BF00BF32
:102F2000036A5FEA037304D5914201F1030100BF14
:102F3000EED9704701610421002A016204BF00201C
:102F40007047002141F28532036A5B070DD500BF4F
:102F5000036A5B0742BF00BF036A5FEA437304D59D
:102F6000914201F1030100BFEED98068012121EAFD
:102F70005000704710B542F20004C4F2000420462D
:102F800000F006F82046BDE8104000F075B80000DB
:102F900001210160704700002DE9F04742F2000C6A
:102FA000C4F2000C604506D10823C4F200031A687D
:102FB00042F080421A600A780C7F4B78023A42EA6B
:102FC000841203F0010503F0FE064B7F42EA05423E
:102FD0004FF40054A4EB433442EA064291F806E071
:102FE000224342F4607291F80A9042610C89CA89C6
:102FF0006FF0FF084F8840F2000A08EB0424CFF678
:10300000FF7A013A0AEB074522432A43AEF1010455
:1030100042EA8462604582618A890C8A8E8808EB64
:103020000222A4F101040AEB064642EA040242EA43
:103030000602A9F1010442EA8462C2618A6942621D
:1030400040F2FF120264456486644969C164A7F1D5
:10305000010101654FF00101016043600AD1002BBD
:1030600008BFBDE8F0874EF20810CEF200004FF422
:1030700000710160BDE8F087C16841F00201C160E4
:10308000704700002DE9F0410446806CA0B34FF278
:103090005E580026C0F20308002705E0A06C45F842
:1030A00027600137874227D0E56C55F8270018B113
:1030B0004146652204F092FF45F82760256D55F8DA
:1030C000270018B14146652204F088FF45F82760C3
:1030D000656D55F8270018B14146652204F07EFF62
:1030E00045F82760A56D55F827000028D6D0414641
:1030F000652204F073FFD1E7E06C30B14FF25E510E
:10310000C0F20301652204F069FF206D30B14FF277
:103110005E51C0F20301652204F060FF606D30B1C2
:103120004FF25E51C0F20301652204F057FFA06D1B
:10313000002808BFBDE8F0814FF25E51C0F20301E4
:103140006522BDE8F04104F049BF00002DE9F041DF
:103150000446C06B00B34FF25E580026C0F203086D
:10316000002705E0E06B45F827600137874213D060
:10317000256C55F8270018B14146652204F02EFF52
:1031800045F82760656C55F827000028EAD04146CD
:10319000652204F023FFE5E7206C30B14FF25E5169
:1031A000C0F20301652204F019FF606C002808BF1B
:1031B000BDE8F0814FF25E51C0F203016522BDE827
:1031C000F04104F00BBF0000B0B50024C4F20A04C3
:1031D0004AF24005204603210F220023C4F20A05CB
:1031E00000F0EAF8204604210F22002300F0E4F862
:1031F00055F8200C40F4702040F0220045F8200CD7
:103200004FF080400168C90720D1006810F01C0F02
:1032100006D04FF08040006800F01C00082815D14F
:1032200000BF00BF00BF00BF00BF00BF00BF00BFA6
:1032300000BF00BF00BF00BF00BF00BF00BF00BF96
:1032400000BF00BF00BF00BF36E000BF44F62060F3
:1032500000BF00BF00BF00BF00BF00BF00BF00BF76
:1032600000BF00BF00BF00BF00BF00BF00BF00BF66
:1032700000BF00BF00BF00BF00BF00BF00BF00BF56
:1032800000BF00BF00BF00BF00BF00BF00BF00BF46
:1032900000BF00BF00BF00BF00BF00BF00BF00BF36
:1032A00000BF00BF00BF00BF00BF00BF00BF00BF26
:1032B00000BF323800BFCBD14FF080400168C90752
:1032C00020D1006810F01C0F06D04FF0804000683D
:1032D00000F01C00082815D100BF00BF00BF00BFD0
:1032E00000BF00BF00BF00BF00BF00BF00BF00BFE6
:1032F00000BF00BF00BF00BF00BF00BF00BF00BFD6
:1033000036E000BF44F6206000BF00BF00BF00BF32
:1033100000BF00BF00BF00BF00BF00BF00BF00BFB5
:1033200000BF00BF00BF00BF00BF00BF00BF00BFA5
:1033300000BF00BF00BF00BF00BF00BF00BF00BF95
:1033400000BF00BF00BF00BF00BF00BF00BF00BF85
:1033500000BF00BF00BF00BF00BF00BF00BF00BF75
:1033600000BF00BF00BF00BF00BF323800BFCBD1DD
:1033700028684FF6006120F0020028606868CFF6E8
:10338000E04108406860686840F4403040F03C002C
:103390006860286820F00400286000BFE86830B941
:1033A000E86820B9E86810B9E8680028F6D028680D
:1033B00040F001002860B0BD70B56FF01F0C0CEB41
:1033C000810C0446082938BF4FEA810C4FF00F0EDC
:1033D00028BF043426680EFA0CF5AE432660266832
:1033E00002FA0CF232432260012202FA01F1002BB0
:1033F000D0F800230CBF22EA01011143C0F80013EA
:1034000070BD00002DE9F04190F806E08046BEF165
:10341000000F0BD0AEF1010003280EF0030C07D211
:1034200000200023BCF1000F1DD12DE000222BE075
:103430000EF0FC00454208F1010100236FF003008B
:103440000A18D67817795479334492793B44234447
:10345000043052FA83F22B180433D3B2F0D1043083
:10346000BCF1000F10D018F80010BCF1010F03EBF5
:10347000010209D040444178BCF1020F51FA82F2B6
:1034800002D0807850FA82F298F80000AA2818BF7B
:10349000BDE8F0810EEB020098F80710C0B2884238
:1034A00022D140F22C15C2F20005686898F801108C
:1034B0000CF066FDA86898F802100CF061FDE86851
:1034C00098F803100CF05CFD286998F804100CF0D3
:1034D00057FD686998F805100CF052FD2868BDE8A2
:1034E000F04107F0C9BB00BFBDE8F08170B540F204
:1034F00008010C25C2F200014378C4F200050968F6
:10350000027890F802C090F803E02E685C1CB1FBD2
:10351000F4F146F480562E604FF44846057901FBDD
:1035200006F64079354445EA8E1643EAC20346EA78
:1035300080004FF00846306040F20400C2F2000004
:10354000006841F28046B0FBF4F0C0F2EF3643EA87
:103550004C03B04288BF43F004030C20C8F60000BF
:10356000032A40F8083C05D84FF40063DFE802F076
:10357000020206084FF4805302E000BF4FF40053EC
:103580004FF47A42B2FBF3F2013292B201FB02F144
:1035900040F8041C022101600AE000BF00BF01687E
:1035A000890742BF00BF01685FEA817108D500BF8B
:1035B0000168890742BF00BF01685FEA8171EDD4ED
:1035C00070BD000080B50C21C4F200010A6842F40D
:1035D00000520A604AF60001C4F204010722C1F851
:1035E000F4230A6822F46C620A60837802789B02F2
:1035F00090F801C090F803E043EA821200790B686A
:103600001A4342EA40204FF6FF720860086840F013
:1036100020000860086A3FFA80F00862086A40EA01
:103620000C6040EA0E200862086820F02000086064
:1036300048689043486040F20800C2F20000006809
:103640004CF6CD42CCF6CC424B68A0FB020243EADA
:10365000D20040F47F40486080BD00004AF614016B
:10366000C4F2040151F8142C22F00F0241F8142C7A
:1036700051F8142C42F0210241F8142C35220A6131
:1036800001220A600A6832B10A6822B10A6812B1DE
:103690000A68002AF6D1D1F808C051F8143C23F08A
:1036A0000F0341F8143C51F8143C43F0210341F856
:1036B000143C05230B6101230B6000BF0B6833B181
:1036C0000A6822B10A6812B10A68002AF6D14FF4DA
:1036D0007D4202EA0C228B68002818BF02F50072B6
:1036E00051F8140CDBB220F00F0041F8140C51F823
:1036F000140C1A4441F22603184341F8140C01201B
:1037000008618A60086005E00868002808BF704703
:10371000086820B1086810B108680028F4D1704723
:103720004AF61400C4F2040050F8141C21F00F01F2
:1037300040F8141C50F8141C41F0220140F8141CED
:103740009F21016101210160016831B1016821B14E
:10375000016811B101680029F6D180687047000046
:10376000B0B541F60004C4F2040405462046052124
:10377000FEF726F9280605D420460821FEF720F991
:1037800004E000BF20460821FEF7E0F920460521AD
:10379000FEF7DCF920460521FEF712F9680605D48C
:1037A00020460821FEF70CF904E000BF204608215E
:1037B000FEF7CCF920460521FEF7C8F92046052181
:1037C000FEF7FEF8A80605D420460821FEF7F8F813
:1037D00004E000BF20460821FEF7B8F92046052185
:1037E000FEF7B4F920460521FEF7EAF8E80605D40D
:1037F00020460821FEF7E4F804E000BF2046082137
:10380000FEF7A4F920460521FEF7A0F92046052180
:10381000FEF7D6F8280705D420460821FEF7D0F891
:1038200004E000BF20460821FEF790F9204605215C
:10383000FEF78CF920460521FEF7C2F8680705D48B
:1038400020460821FEF7BCF804E000BF204608210E
:10385000FEF77CF920460521FEF778F92046052180
:10386000FEF7AEF8A80705D420460821FEF7A8F811
:1038700004E000BF20460821FEF768F92046052134
:10388000FEF764F920460521FEF79AF8E80709D10A
:1038900020460821FEF794F820460521BDE8B040F7
:1038A000FEF754B920460821FEF750F920460521BD
:1038B000BDE8B040FEF74AB940F28C10C2F20000F9
:1038C00001680131016000F001B80000704700009C
:1038D00010B57024C4F2000454F8680C40F0007075
:1038E00044F8680C9620FDF7FFFF002017F0DEFD7E
:1038F0004FF080400168C90716D1006840F6006C9F
:10390000C0F38201C0F2277C04296CD8DFE801F003
:103910000432444C560000BF40F20401C2F20001E0
:103920004FF4FA425EE000BF4AF20000C4F20A001F
:10393000006845F6002180074DF68360C0F26221E1
:10394000C4F21B305CBF42F60051C0F23111A1FB42
:10395000000240F20400C2F20000920CC0E9001222
:103960004CF28032C0F2C9121E20914288BF28203A
:1039700061E000BF4AF20001C4F20A01096C40F2A2
:10398000040289074CF2EC11C0F6EB31C2F20002DE
:1039900058BF6146116026E040F20401C2F2000106
:1039A0004FF400421EE000BF40F2040141F6003235
:1039B000C2F20001C0F2B70214E000BF40F20401FD
:1039C00042F60052C2F20001C0F231120A604AF21D
:1039D0000002C4F20A021268920704D545F60022DA
:1039E000C0F262220A604FF080410B6840F204028C
:1039F0009B07C2F200024DF683631168C4F21B33C9
:103A000044BFC9081160A1FB0330800C61455060C0
:103A100002D996200FE000BF4BF20040C0F2C44034
:103A2000814201D9782006E045F60020C0F26220EC
:103A3000814295D95020FDF757FF40F28010C4F223
:103A40000A00D0F8001121F00201C0F8001101684D
:103A500021F00C010160206820F006002060206841
:103A600040F00200206010BD80B546F60010C4F2A0
:103A7000040000F005F80120BDE880400CF09ABF7A
:103A800001214161704700002DE9F0410446A0F199
:103A90008040A0F58D204FEAB010DDF81880042892
:103AA00040F208001D4616460F46C4F2000005D835
:103AB000016841F40061016004E000BF416841F425
:103AC00080014160204600F06BFAA068B8F1000F59
:103AD00020F00F00A060A06840EA0700A060A6F1F7
:103AE00001002063A5F1010020604FF0010060613A
:103AF0002169404618BF012021F00101084448F621
:103B0000BF01C4F204018C4220612DDD48F6BF10D4
:103B1000C4F2040084424DDD48F63F20C4F20400A4
:103B2000844240F3878048F64020C4F20400844277
:103B300000F0F08048F68020C4F20400844200F0D7
:103B4000F78048F6C020C4F20400844209D1B8F1DD
:103B5000000F06D04EF20810CEF200004FF4000124
:103B60000160BDE8F08100BF46F6FF00C4F204002A
:103B700084423FDC46F67F00C4F20400844275DCD8
:103B800046F60000C4F20400844200F0DF8046F6EE
:103B90004000C4F204008442E3D1B8F1000FE0D049
:103BA0004EF20810CEF20000082140F8081CBDE8D3
:103BB000F08100BF48F63F10C4F20400844271DC7B
:103BC00048F6C000C4F20400844200F0CD8048F6FC
:103BD0000010C4F204008442C3D1B8F1000FC0D079
:103BE0004EF20810CEF200004FF480310160BDE8C3
:103BF000F08100BF48F63F00C4F2040084426DDC4F
:103C000046F60010C4F20400844200F0BB8048F67F
:103C10000000C4F204008442A3D1B8F1000FA0D088
:103C20004EF20810CEF200004FF4006140F8081C7C
:103C3000BDE8F08148F6C010C4F20400844200F0F0
:103C4000AF8048F60020C4F2040084427FF489AFBC
:103C5000B8F1000F3FF485AF4EF20810CEF200002D
:103C60004FF480110160BDE8F08100BF46F680008E
:103C7000C4F20400844200F0A18046F6C000C4F201
:103C8000040084427FF46DAFB8F1000F3FF469AFD8
:103C90004EF20810CEF200004FF4800140F8081CEC
:103CA000BDE8F08148F64010C4F20400844200F000
:103CB000938048F68010C4F2040084427FF451AF30
:103CC000B8F1000F3FF44DAF4EF20810CEF20000F5
:103CD0004FF480210160BDE8F08100BF48F640004C
:103CE000C4F20400844200F0858048F68000C4F2EB
:103CF000040084427FF435AFB8F1000F3FF431AFD8
:103D00004EF20810CEF200004FF0005140F8081CAF
:103D1000BDE8F081B8F1000F3FF423AF4EF2081078
:103D2000CEF200004FF400110160BDE8F08100BF49
:103D3000B8F1000F08BFBDE8F0814EF20810CEF2D6
:103D400000004FF480010160BDE8F081B8F1000F80
:103D50003FF407AF4EF20810CEF20000042140F805
:103D6000081CBDE8F08100BFB8F1000F3FF4F9AEC8
:103D70004EF20810CEF200004FF0004140F8081C4F
:103D8000BDE8F081B8F1000F3FF4EBAE4EF2081041
:103D9000CEF200004FF400410160BDE8F08100BFA9
:103DA000B8F1000F3FF4DDAE4EF20810CEF2000085
:103DB0004FF400210160BDE8F08100BFB8F1000FB1
:103DC0003FF4CFAE4EF20810CEF200004FF4801157
:103DD00040F8081CBDE8F081B8F1000F3FF4C1AE17
:103DE0004EF20810CEF200004FF400310160BDE841
:103DF000F08100BFB8F1000F3FF4B3AE4EF20810EF
:103E0000CEF200004FF0806140F8081CBDE8F08160
:103E100048F6BF01C4F20401884248F64041C4F2AA
:103E2000040123DD48F6BF12C4F2040290423BDDD8
:103E300048F63F22C4F2040290425DDD48F640227B
:103E4000C4F20402904200F0918048F68022C4F24D
:103E50000402904200F08E8048F6C022C4F20402B0
:103E6000904240F09C804FF4006094E046F6FF02E0
:103E7000C4F204029042A1F5005229DC46F67F010B
:103E8000C4F20401884247DC46F60001C4F2040192
:103E9000884273D046F64001C4F20401884218BF3C
:103EA0007047022078E000BF48F63F12C4F20402D7
:103EB00090423FDC48F6C002C4F2040290425FD058
:103EC00048F60012C4F20402904268D1102062E069
:103ED00048F63F03C4F20403984239DC46F6001367
:103EE000C4F2040398424DD048F60002C4F2040222
:103EF000904254D101204EE048F6C012C4F20402B0
:103F0000904241D048F60022C4F20402904246D1C9
:103F10004FF480703FE000BF46F68001C4F2040118
:103F2000884233D046F6C001C4F20401884236D13B
:103F3000082031E048F64012C4F20402904227D033
:103F400048F68012C4F20402904228D1402022E0B8
:103F500048F64002C4F2040290421BD048F68002A8
:103F6000C4F2040290421AD1042014E04FF400700D
:103F700011E000BF4FF480600DE000BF01200BE0B6
:103F8000082008E0102007E0802004E0042003E07F
:103F9000202000E002200A461168084310607047A4
:103FA00048F6BF01C4F20401884248F64041C4F219
:103FB000040123DD48F6BF12C4F2040290423DDD45
:103FC00048F63F22C4F20402904263DD48F64022E4
:103FD000C4F20402904200F09D8048F68022C4F2B0
:103FE0000402904200F09A8048F6C022C4F2040213
:103FF000904240F0B5806FF40060ADE046F6FF02FD
:10400000C4F204029042A1F500522DDC46F67F0175
:10401000C4F2040188424DDC46F60001C4F20401FA
:10402000884200F07F8046F64001C4F204018842D5
:1040300018BF70476FF002008FE000BF48F63F12D4
:10404000C4F20402904245DC48F6C002C4F2040205
:1040500090426BD048F60012C4F20402904240F045
:104060007F806FF0100077E048F63F03C4F204034E
:1040700098423FDC46F60013C4F20403984259D03C
:1040800048F60002C4F20402904269D16FF00100C8
:1040900062E000BF48F6C012C4F2040290424DD064
:1040A00048F60022C4F20402904259D16FF48070A5
:1040B00052E000BF46F68001C4F20401884241D0BC
:1040C00046F6C001C4F20401884249D16FF00800ED
:1040D00043E000BF48F64012C4F20402904235D0DB
:1040E00048F68012C4F20402904239D16FF04000C9
:1040F00032E000BF48F64002C4F20402904229D0E8
:1041000048F68002C4F20402904229D16FF0040004
:1041100022E000BF6FF400701EE000BF6FF480600B
:104120001AE000BF6FF0010017E000BF6FF0080059
:1041300012E000BF6FF010000FE000BF6FF08000D2
:104140000AE000BF6FF0040007E000BF6FF020003E
:1041500002E000BF6FF002000A46116808401060DC
:1041600070470000F0B581B043F60004C4F20404C7
:104170002046102100F0C4F840F298060028C2F250
:1041800000066CD02046102100F0B2F869462046A7
:1041900000F0A4F948B93078092806D89DF8001035
:1041A000321801309170117330706946204600F06A
:1041B00095F948B930780A2806D29DF800103218CF
:1041C00001309170117330706946204600F086F915
:1041D00048B93078092806D89DF800103218013007
:1041E0009170117330706946204600F077F948B934
:1041F0003078092806D89DF80010321801309170E7
:10420000117330706946204600F068F948B930787B
:10421000092806D89DF800103218013091701173EA
:1042200030706946204600F059F948B930780928BD
:1042300006D89DF80010321801309170117330705B
:104240006946204600F04AF948B93078092806D86E
:104250009DF80010321801309170117330702046B3
:104260004FF4804100F04CF818B3204600F024F9D8
:1042700010B33078012815D1B078052812D1EFF3AA
:10428000108072B604F5BA2420460021052200F001
:104290002FF9204600F066F900BF00BF00BF00BF45
:1042A000FAE700BF0020307020464FF4804100F054
:1042B0001FF801B0F0BD00BF6D46012706E000BF4A
:1042C0007770204600F0F8F80028D2D12046294621
:1042D00000F004F90028F4D130780928F0D89DF8CE
:1042E000001032180130917011733070E8E700004F
:1042F000490458BF7047C16941F40051C16170471A
:10430000CA0644BF82685FEA422213D44A0444BF0B
:1043100082685FEA82220DD44A0744BF82685FEA5E
:10432000823207D4490652BF00208068C0F3C060C3
:10433000704700BF0120704710B5A0F18042A2F580
:1043400084224FEAF22CBCF1030F0BD840F2080E86
:1043500055A2C4F2000E52F82C20DEF800301A43A9
:10436000CEF8002042684CF2000322F40072426052
:104370008268C0F6FF731A40826040F20402C2F203
:10438000000212680B68BCF1030FB2FBF3F2836802
:10439000A2F1010243EA32128260426822F47C02F6
:1043A00042604A790B794FEAC24242EA834E8B79E6
:1043B000426842EA0E0242EA83524260C26892B206
:1043C000C26091F807E04B7AC26842EA0E4242EAC4
:1043D000036240F6FF73C260C26922EA0302C2614F
:1043E000CA7AC36942EA030242F48052C261426857
:1043F00044F2140322EA030242608A7A0B7A91F8AB
:104400000CE04FEA820141EA0311446841EA0401E9
:1044100041EA8E31416088BF10BD0FF20600DFE82F
:104420000CF003111F2D00BF42EA030050EA0E00FA
:104430004EF20010CEF200004FF001012CD00160CE
:1044400010BD00BF42EA030050EA0E004EF2001019
:10445000CEF200004FF002011ED0016010BD00BF7F
:1044600042EA030050EA0E004EF20010CEF20000C5
:104470004FF4807110D0016010BD00BF42EA03000C
:1044800050EA0E004EF20010CEF200004FF4001180
:1044900002D0016010BD00BFC0F88010BFF34F8F85
:1044A000BFF36F8F10BD00BF400000008000000010
:1044B00000010000000200004068012121EAD00054
:1044C000704700004068012121EA000070470000A9
:1044D000416841F4007141607047000002680220A9
:1044E00000EA52206FF35F220A6070470160704754
:1044F00040F2080CC4F2000CDCF8003043F4806396
:10450000CCF8003083684EF2001C23F00103836076
:104510008368CEF2000C23F470638360836843F4F5
:1045200080638360836849B143F00403836001239F
:104530004160C3608023CCF8003009E023F004031D
:1045400083608023CCF88030BFF34F8FBFF36F8F31
:104550008368002A23F002031CBF023311468360E4
:1045600001607047816841F001018160704700007F
:1045700070B590F83150D0F800C02C070AD4838B66
:104580001488E5180FFA85FEBEF1010F0EDB5842C4
:10459000108070BDC28B1C88A6180FFA86FEBEF173
:1045A000010F0FDB5042188070BD00BF058C05EB7A
:1045B0000E06B6F5487F11DA5819C0F5487010801C
:1045C00070BD00BF408C00EB0E06B6F5F07F1DDA23
:1045D0001044C0F5F070188070BD00BF90F8300036
:1045E000402857D3BCF82000D4B3098D01F007014F
:1045F000042951D003294DD1AEEB000191FBF0F11C
:1046000001FB00F0C01A108070BD00BFA80741D0A8
:1046100094B1098DBCF8220001F00701022931D0C4
:10462000012918BF70BDAEEB000191FBF0F101FB59
:1046300000F0801A188070BDBCF91E009EFBF0F1DE
:1046400001FB00F0A0EB0E01198008B2BCF91E10AE
:10465000B0EB610F1EDD89B2401A188070BD00BF3B
:104660009EFBF0F101FB00F1A1EB0E010BB21180FA
:1046700093FBF0F606FB1033B3EB500F0ADD081A7C
:10468000108070BD9EFBF0F101FB00F0A0EB0E006E
:104690002044188070BD00BF9EFBF0F101FB00F0CC
:1046A000A0EB0E002044108070BD000070B50546E0
:1046B00002F0E0FF132104460AF012FF002808BFB1
:1046C00070BD5CB194F83900810707D440F0020155
:1046D000000784F8391007D401251AE02046BDE808
:1046E000704006F08FBA00BF606B0CF033F90646DD
:1046F000284602F093FFB6FBF0F005B2012D08DA70
:1047000012E000BF204604F079F928B2013D0128EB
:104710000ADD94F839004007F4D4204604F0DCF8B0
:1047200028B2013D0128F4DC0CF02CF9606370BD67
:104730002DE9F04F83B0002800F0B0800446B0F9B6
:104740002800029101287BDB1FFA80FA4FF2E80B68
:104750004FF000096DA76625C0F2030B1BE000BFF8
:104760004FF49E7000904EF68B404EF6045140F28E
:10477000A5434EF65C56C0F20300C0F203015A4650
:10478000C0F20403C0F20306019617F013FF09F10B
:104790000109CA4554D0606850F8296026B13046F6
:1047A0000AF07EFDB0B9F2E74EF68B404EF60451AA
:1047B00040F2CE43C0F20300C0F203015A46C0F2F9
:1047C00004030095019717F0F5FE30460AF068FDE6
:1047D0000028DCD0308D18B930460AF031FD18B110
:1047E00030460021FFF7A4FF304601F047FE804627
:1047F00001F05AF80028B3D0B8F1000FC7D1B6F9CC
:104800001C20B0F92A103D468A42B8BF4285B6F94D
:104810001E10B0F92E309942B8BFC185338CB0F963
:104820002C701A44BA42C8BF8285728CB0F93030FD
:1048300011442F4666259942C8BF0186A7E700BFED
:10484000029838BB20460AF0FBFC18BB204601F05A
:1048500015FE054601F028F8D0B3DDB9B4F91C20E7
:10486000B0F92A108A42B8BF4285B4F91E10B0F9D7
:104870002E309942B8BFC185238CB0F92C701A44F0
:10488000BA42C8BF8285628CB0F930301144994277
:10489000C8BF018603B0BDE8F08F00BF6020009064
:1048A0004EF68B404EF604514FF2E80240F2CE43F2
:1048B00017A7C0F20300C0F20301C0F20302C0F266
:1048C0000403019717F076FE03B0BDE8F08F00BF38
:1048D0004FF49E7000904EF68B404EF604514FF20E
:1048E000E80240F2A5434EF65C57C0F20300C0F266
:1048F0000301C0F20302C0F20403C0F203070197F0
:1049000017F058FE03B0BDE8F08F00BF707472005E
:104910006F626A002DE9F0438DB00C460546CDE983
:104920000423CDE902230AF08BFBD5E907120B180B
:1049300000EB1141ADF80030ADF80210A2EB4001E0
:10494000120CA2EB4000ADF80410ADF8060004A86C
:10495000694602AA05F054FE20B928460AF0A0FADA
:10496000072847D1288D002844D000270DF12C08B6
:104970000DF1180904E000BF288D0137874239D2B4
:10498000686850F82760DDE90201CDE90B01304687
:104990000AF086FC0028EFD0206806F11C012230C6
:1049A00005F0F4FE0028E7D020684168D0F8222006
:1049B000002918BF04F11C01069196F83110D0F8B7
:1049C0002630890608EAE171406BCDE90923CDE97B
:1049D0000710B068C6F81090016830468847308DDF
:1049E0000028C9D0DDE9022330462146FFF792FFB7
:1049F000C2E700BF0DB0BDE8F083000010B5D0F8ED
:104A000018C0002200230C46E04740F2E741C0F204
:104A1000040120466922BDE8104003F0DFBA00001F
:104A2000B0B5D0F818C0002200230C460025E0479E
:104A300040F20A51C0F2040120469322E561BDE82C
:104A4000B04003F0CBBA000080B5FCF7EBFAB0FA47
:104A500080F0400980BD000010B582B070B10446FE
:104A6000406B40B140F20D61C0F204015F2203F0DF
:104A7000B5FA0020606302B010BD00BF5B204FF2AA
:104A8000E80206A4009006A012A114A3C0F203023B
:104A9000019417F08FFD02B010BD00BF6F626A0075
:104AA0005B47545F4552524F5D5B25735D5B2573D9
:104AB000257328293A25645D205B25735D20766186
:104AC0006C756520636865636B206661696C6564FD
:104AD000210A0000434845434B0000005F646569BC
:104AE0006E69745F6362000010B50446006C18B113
:104AF00002F050FF00202064A06B40B140F2306112
:104B0000C0F204017A2203F069FA0020A063E06B8E
:104B100040B140F23061C0F204017F2203F05EFA3E
:104B20000020E0630020606310BD00002DE9F04725
:104B300000283FD00446406C18B102F039FD002037
:104B4000606494F8380000F00700012832D1206C2E
:104B5000002808BFBDE8F087E18F04F13C08013967
:104B60000FB2002F29D4B9B240F2CD6A4FF0FF390D
:104B70008D00C0F2040A0026415981B1096839B19B
:104B800008465146F72203F029FA206C41590E607D
:104B900040595146FA2203F021FA206C4651781E02
:104BA00007B24F4508DD206C043D41590029E5D18D
:104BB000F5E700BFBDE8F087206C40F2CD61C0F2A0
:104BC0000401FD2203F00AFA404600210822BDE854
:104BD000F04709F00FBE00002DE9F041044640689F
:104BE0008846002860D0208D00285DD020461E21F8
:104BF0000022002608F0DEF8208D013807B2002FD1
:104C000010D4B8B2850000BF606800214059FFF79A
:104C1000E3FF00281CBF6068465138B2013F043DE5
:104C20000028F1DC20461F210022002608F0C2F8EF
:104C3000606838B140F25661C0F20401B02203F05E
:104C4000CDF96660B8F1000F268529D120462021D4
:104C50000022002508F0AEF8204601F0F7F9E068E0
:104C600038B140F25661C0F20401782203F0B6F97F
:104C7000E56094F82F00A16800F0EF0084F82F00A1
:104C8000496800291CBF2046884740F2566100262B
:104C9000C0F20401204689222661A66003F09EF935
:104CA0003046BDE8F08100BFB8F1000F1CBF012005
:104CB000BDE8F081204620210022002508F07AF886
:104CC000204601F0C3F9E06838B140F25661C0F205
:104CD0000401782203F082F9E56094F82F00A168BE
:104CE00000F0EF0084F82F00496800291CBF20461F
:104CF0008847002040F256612061A060C0F20401A4
:104D00002046892203F06AF90120BDE8F081000005
:104D100040884988401AB0FA80F040097047000086
:104D200010B582B00446084608F042F816280DD0A7
:104D30001A282FD0182832D1204605F063FF2046CC
:104D40001921002208F036F802B010BDD4E907108E
:104D5000CDE90010204602210AF0C2FB6A46002875
:104D600014BF606B0020111D063208F0E1F901301C
:104D700015D0BDF8040090B1BDF8060078B16946C1
:104D800020460AF099FF20461821002208F012F868
:104D900002B010BD20461821002208F00BF802B026
:104DA00010BD0000B0B582B00446084608F000F817
:104DB0000138172800F25F80DFE800F0120C0C5D6C
:104DC000225D5D5D5D5D5D5D5D5D5D5D5D5D5D5D4E
:104DD0005D305D3894F8440040F0010314E000BFFA
:104DE00094F84410206C01F0FE01002884F844106F
:104DF00044D002F04FFE00284AD0056849E000BFC9
:104E000094F8440000F0FE0320461821002284F8A4
:104E1000443002B0BDE8B04007F0CCBF20461821B6
:104E2000002202B0BDE8B04007F0C4BF606B0021B3
:104E3000ADF80610ADF804100DF1060101AA08F056
:104E400077F9013012D0BDF8060078B1BDF8041032
:104E500061B1228C824288BF1046628C2084204639
:104E60008A4288BF1146618405F0CCFE2046192194
:104E7000002207F09FFF02B0B0BD00BF002000215C
:104E8000002502F0C9FD002818BF056801E000BF39
:104E90000025204618210022656302B0BDE8B0401D
:104EA00007F088BF10B50446084607F081FF1738A1
:104EB000012888BF10BD2046BDE8104005F0A2BE05
:104EC00070B5002804BF002070BD1E2104460AF002
:104ED00007FB28B120460AF0E3F908B1204670BD6F
:104EE000B4F928000128BCBF002070BD85B200269F
:104EF000606850F82600FFF7E3FF28B90136B54295
:104F000004BF002070BDF3E70446204670BD0000DA
:104F1000F0B581B040F24C000C46C2F200000168CE
:104F2000B4F90000B4F902304FF4487713FB0703DB
:104F3000A08801EB4305B0F5487F16460CD1E08808
:104F40004FF4C86100FB01F22846314601B0BDE8CC
:104F5000F040FCF72EB800BFE188C9B3002700BFBE
:104F6000420028463146FCF724F8E08847F001016A
:104F700081422DD2A08806EB4006420005F5C860AC
:104F80003146FCF716F8E08847F0020181421FD253
:104F9000A08806EB4006420005F548603146FCF764
:104FA00008F8E08847F00301814211D2A08806EB9F
:104FB0004006420005F596503146FBF7FAFFA088FF
:104FC000E18806EB400604378F4205F5C855C7D384
:104FD00001B0F0BD10B582B00C46486851688842F7
:104FE00002D1117BC90704D130B101F057F800207C
:104FF0006060012002B010BD4FF48A7000904EF640
:105000008B404EF604514FF2E80207A4C0F20300B1
:105010000AA3C0F20301C0F20302019417F0CAFA16
:10502000012002B010BD00BF702D3E707265765F2A
:105030007363725F616C6976650000005F6672651C
:10504000655F616C6976655F7363725F6F626A65E5
:1050500063745F636200000070B540F2540445F26F
:10506000D520C2F20004C0F202001E210022C4E9D1
:105070000044002502F044FA40F21C16C2F2000679
:10508000012131702168F060091BB1FA81F14909F1
:1050900002F068FB357070BDB0B586B00446D0E94B
:1050A0000B204FF4806500210023009509F056FB8A
:1050B000616BE26BB0F5CC7FA2EB010506DA40F63E
:1050C000C41100FB01F080124EE000BF40F26521E8
:1050D00088420FDC46F26761C6F2666100EB800031
:1050E00055FB01F14042CA1002EBD17500F6F830D1
:1050F0003AE000BF40F2323188420DDC46F267618F
:10510000C6F2666155FB01F100EB8000CA1002EBAC
:10511000D175A0F6FE3027E0B0F5667F10DC46F2D0
:10512000676100EB8000C6F2666155FB01F1404209
:1051300042F2FE3202EB40000A1102EBD17513E09D
:10514000B0F5806F10DA46F26761C6F2666100EB77
:1051500080004DF6064255FB01F1CFF6FF7202EBDF
:1051600040000A1102EBD1754FF48061B0F5806FF9
:10517000A8BF084620EAE070CDE901014FF448706D
:1051800003904FF4FA7004900020059001A805F0F8
:105190007BFB00FB05F0E16BA1EBA02006B0B0BDEE
:1051A00070B586B00446D0E90B204FF4806500212D
:1051B00000230095002609F0D1FACDE9010632203E
:1051C00003906420CDE9040501A805F05DFB616B47
:1051D000E26B521A02FB00F001EBA02006B070BD9A
:1051E00070B586B00446D0E90B204FF480650021ED
:1051F00000230095002609F0B1FACDE9010632201E
:10520000039040F2B630CDE9040501A805F03CFB5F
:10521000616BE26B521A02FB00F001EBA02006B0BA
:1052200070BD000070B586B00446D0E90B204FF485
:105230008065002100230095002609F08FFACDE952
:1052400001064FF41670CDE9040501A8039605F098
:105250001BFB616BE26B521A02FB00F001EBA0201A
:1052600006B070BD10B582B00446D0E90B204FF4F3
:10527000806C00210023CDF800C009F06FFA616B4B
:10528000E26B521A02FB00F001EBA02002B010BD4D
:1052900070B586B00446D0E90B204FF4806500213C
:1052A00000230095002609F059FACDE901064FF4D4
:1052B0007A70039040F21450CDE9040501A805F07E
:1052C000E3FA616BE26B521A02FB00F001EBA020E3
:1052D00006B070BD2DE9F04F81B040F25405C2F226
:1052E00000052868A84200F0CA8040F21C17C2F2EC
:1052F000000778680BF02EFB7978814681F0010079
:1053000000244FF6FF7B787005E000BF3878012855
:1053100040F0B0803C70D5F80080A845F6D0C24679
:1053200007E000BF706A0BF015FB7062A845C2462B
:10533000ECD0464696F84F007978D8F8008000F017
:1053400001028A423C70F1D000F0FE0211430007D6
:1053500086F84F10E6D4B06A012806DB706A0BF0BD
:10536000F9FAB16A8842E1D3B462306BBE600028BA
:1053700004DC316911B130468847306B10EB09000D
:105380003063D3D4F16A8842C8BF3163F1693046D3
:105390008847B26B904205D0F2680146B0630AB10B
:1053A000B0689047D6E90B0181422DDBB6F84C205E
:1053B00096F84F1062B15A4507D011F0020304D19C
:1053C000013A1304A6F84C2002D0326C04E000BF6E
:1053D0008A071FD4326CEAB1B36CC3F100033363A4
:1053E00092B111F002030FD1D6F834C0736CD6F825
:1053F0003CE081F00201C6E90FC006F12C005B42DF
:1054000086F84F1080E80C40387800283FF48EAFC3
:1054100080E700BF716900291CBF30468847B16929
:1054200000291CBF30468847D6E90001416008606A
:10543000C6E900AA28680121401B3970B0FA80F142
:10544000F868490902F08EF9306A40F22C5AC0F22D
:10545000040A20B15146422202F0C0FD34623046B7
:1054600051465D2202F0BAFD387800283FF45EAF65
:1054700050E700BF0020B8600BF084FA786001B0FC
:10548000BDE8F08F2DE9F04F87B00C46096807465C
:10549000D1F82280D1F8269009F002FF002843D0ED
:1054A000388D002840D000260DF1140AEB4603E0A9
:1054B000388D0136864237D2786850F82650CDE9CB
:1054C0000589284609F0ECFE0028F1D0206805F196
:1054D0001C01223005F05AF90028E9D02068416803
:1054E000D0F82220002918BF04F11C01009195F882
:1054F0003110D0F8263089060AEAE171406BCDE917
:105500000323CDE90110A868C5F810B0016828464A
:105510008847288D0028CBD02846214642464B4656
:10552000FFF7F8F9C4E700BF07B0BDE8F08F00004F
:1055300070B582B0E0B10446008DB8B100200026FD
:1055400005E000BF013630B2218D88420EDA616875
:1055500051F82050284609F0A3FE0028F2D0284632
:105560000F21224607F026FCECE700BF02B070BD19
:105570004FF4B27000904EF68B404EF604514FF24D
:10558000E80206A6C0F2030005A3C0F20301C0F2C0
:105590000302019617F00EF802B070BD746F700030
:1055A0005F67745F646973705F68696465645F6C8A
:1055B000617965725F746F705F7769646765747332
:1055C000000000002DE9F04F83B0074600F06CF9B1
:1055D00090F85821044690F8596100EBC20A3868E7
:1055E00079684AF8380F951B009238BF2035012D95
:1055F000CAF8041032DB00984FF00008204400F590
:105600009C7B0DF104090BE0701C81B208F10108CC
:10561000B1F120060FFA88F118BF06468D421DDD54
:1056200004FA86F090F838010028EDD130B25146E6
:1056300004EBC00000F13807384605F0D3F8002825
:10564000E2D048463946524605F0EEF8384649461B
:1056500004F0D0FF01208BF80000D5E7009820442B
:1056600090F8381131B100F59C700021017003B041
:10567000BDE8F08F94F858010130C1B2203918BF4D
:10568000014684F8581103B0BDE8F08F90F8591125
:1056900000234218013182F83831B1F1200218BFDD
:1056A0000A4680F85921704790F8581190F859012E
:1056B000081A18BF0120704770B590F8581190F87B
:1056C0005921B1EB020E38BF0EF1200EBEF1010FD1
:1056D000BCBF002070BD4FF0010C0124134600BF79
:1056E00000FA83F191F83811C1B150FA82F5002126
:1056F0005CFA82F685F838115D1CABB2B6F1200277
:1057000018BF3246203B80F8592118BF2B4625B2DE
:105710000134AE45E4DC084670BD00BF19B200EBB1
:10572000C10000F13801084670BD0000B0B500F0BE
:10573000BBF80446383000214FF48072002509F090
:1057400059F804F59C700021202209F053F8A4F8C0
:105750005851B0BD10B582B010B3044600F0A4F8A3
:10576000C0B30021024641850068D185017A01233A
:1057700063F35F01032914BF0146811C09880123DB
:105780009185017A63F35F01032918BF0230038812
:1057900020460121138602B0BDE81040FEF7C8BFC5
:1057A0004FF4AA7000904EF68B404EF604514FF223
:1057B000E80240F28C4315A4C0F20300C0F20301DA
:1057C000C0F20302C0F20403019416F0F3FE02B02B
:1057D00010BD00BF4FF4AB7000904EF68B404EF6FC
:1057E00004514FF2E80240F28C434EF65C54C0F292
:1057F0000300C0F20301C0F20302C0F20403C0F2CE
:105800000304019416F0D6FE02B010BD736372005B
:105810000AF000BDB0B582B00D46044600F044F871
:10582000F0B1DDB9B4F90020B0F92A108A42B8BF4E
:105830004285B4F90210B0F92E309942B8BFC18543
:10584000A388B0F92C501A44AA42C8BF8285E288C6
:10585000B0F9303011449942C8BF018602B0B0BDE2
:105860004FF49E7000904EF68B404EF604514FF26E
:10587000E80240F2A5434EF65C55C0F20300C0F2C8
:105880000301C0F20302C0F20403C0F20305019554
:1058900016F090FE02B0B0BD80B50AF0DBFBBDE8AB
:1058A00080400AF05FBE000040F25400C2F20000E7
:1058B000C069704740F25400C2F2000020307047C7
:1058C00040F25401C2F20001C86170472DE9F04F67
:1058D00083B0002800F0A9800C9F002F00F0A58065
:1058E0008046B87E0E46B7F9121010F0010E1D4624
:1058F000914200F39A80FC8A6018904240F39580B0
:10590000B7F910C03B8B03EB0C00B04208DCB7F8D2
:1059100014A0D843604405EB0609504481455DDD81
:10592000C818904204DCD84308442044904255DA19
:10593000002B7AD0511A0AB2C8431944091B1FFA26
:105940008CFC9342C8BF1918B8688AB2ACEB060445
:1059500000EB420630F812C07688F868A6EB0C0619
:1059600030F81220D7F804900FFA86FBB88AE61AAE
:1059700016442344D24309EB0C013044BEF1000F1E
:105980001A4455D10FFA80FA14B2BBF1010FC0F2DC
:1059900018824FF0FF3010FA8BF0029103280BF0C1
:1059A0000300CDE9000B80F08980A4460023DDE9E7
:1059B00001B7009E6446002E00F00382D84358448D
:1059C000385C03EB0A01A942C0F08081E11AA942C8
:1059D000C0F08781012E00F0F4818BE1BEF1000F51
:1059E000ACEB060116D1A9421FDC002905D44046C4
:1059F00008F00AFFB7F91000811BB88A0144A942D8
:105A000013D208EB0100691A03B0BDE8F04F08F0AB
:105A1000FBBE00BF21EAE170A84206DCBA8A11444D
:105A2000A942C8BF2946091A42D503B0BDE8F08F84
:105A3000BBF1000F2ADD02911FFA8BF459460FFAD1
:105A400080FB4FF0FF3010FA81F013B2032801F011
:105A50000300CDE9004080F0C18000279C46019CF6
:105A6000C4B1009BF84302991844085C07EB0B0192
:105A7000A94280F0FF00C0F04F81ACEB0701A942C2
:105A8000C0F05681012C05D05CE100BF0FFA82FC0A
:105A90000FFA80FB2846AC45B8BF0CF1010020EAA4
:105AA000E070AB45C8BFAB46ABEB000121EAE1714A
:105AB000404403B0BDE8F04F08F0A6BE1FFA8BF0DB
:105AC000264620F0030E584600EB0C0303EB0901B9
:105AD00008EB0A0B8F1E0023A44606E00433043EA5
